{
  "_format": "hh-sol-artifact-1",
  "contractName": "NFTMarket",
  "sourceName": "contracts/NFTMarket.sol",
  "abi": [
    {
      "inputs": [],
      "stateMutability": "nonpayable",
      "type": "constructor"
    },
    {
      "anonymous": false,
      "inputs": [
        {
          "indexed": true,
          "internalType": "uint256",
          "name": "itemId",
          "type": "uint256"
        },
        {
          "indexed": true,
          "internalType": "address",
          "name": "nftContract",
          "type": "address"
        },
        {
          "indexed": true,
          "internalType": "uint256",
          "name": "tokenId",
          "type": "uint256"
        },
        {
          "indexed": false,
          "internalType": "address",
          "name": "seller",
          "type": "address"
        },
        {
          "indexed": false,
          "internalType": "address",
          "name": "owner",
          "type": "address"
        },
        {
          "indexed": false,
          "internalType": "uint256",
          "name": "price",
          "type": "uint256"
        },
        {
          "indexed": false,
          "internalType": "bool",
          "name": "sold",
          "type": "bool"
        }
      ],
      "name": "MarketItemCreated",
      "type": "event"
    },
    {
      "inputs": [
        {
          "internalType": "address",
          "name": "nftContract",
          "type": "address"
        },
        {
          "internalType": "uint256",
          "name": "itemId",
          "type": "uint256"
        }
      ],
      "name": "creatMarketSale",
      "outputs": [],
      "stateMutability": "payable",
      "type": "function"
    },
    {
      "inputs": [
        {
          "internalType": "address",
          "name": "nftContract",
          "type": "address"
        },
        {
          "internalType": "uint256",
          "name": "tokenId",
          "type": "uint256"
        },
        {
          "internalType": "uint256",
          "name": "price",
          "type": "uint256"
        }
      ],
      "name": "createMarketItem",
      "outputs": [],
      "stateMutability": "payable",
      "type": "function"
    },
    {
      "inputs": [],
      "name": "fetchItemsCreate",
      "outputs": [
        {
          "components": [
            {
              "internalType": "uint256",
              "name": "itemId",
              "type": "uint256"
            },
            {
              "internalType": "address",
              "name": "nftContract",
              "type": "address"
            },
            {
              "internalType": "uint256",
              "name": "tokenId",
              "type": "uint256"
            },
            {
              "internalType": "address payable",
              "name": "seller",
              "type": "address"
            },
            {
              "internalType": "address payable",
              "name": "owner",
              "type": "address"
            },
            {
              "internalType": "uint256",
              "name": "price",
              "type": "uint256"
            },
            {
              "internalType": "bool",
              "name": "sold",
              "type": "bool"
            }
          ],
          "internalType": "struct NFTMarket.MarketItem[]",
          "name": "",
          "type": "tuple[]"
        }
      ],
      "stateMutability": "view",
      "type": "function"
    },
    {
      "inputs": [],
      "name": "fetchMarketItems",
      "outputs": [
        {
          "components": [
            {
              "internalType": "uint256",
              "name": "itemId",
              "type": "uint256"
            },
            {
              "internalType": "address",
              "name": "nftContract",
              "type": "address"
            },
            {
              "internalType": "uint256",
              "name": "tokenId",
              "type": "uint256"
            },
            {
              "internalType": "address payable",
              "name": "seller",
              "type": "address"
            },
            {
              "internalType": "address payable",
              "name": "owner",
              "type": "address"
            },
            {
              "internalType": "uint256",
              "name": "price",
              "type": "uint256"
            },
            {
              "internalType": "bool",
              "name": "sold",
              "type": "bool"
            }
          ],
          "internalType": "struct NFTMarket.MarketItem[]",
          "name": "",
          "type": "tuple[]"
        }
      ],
      "stateMutability": "view",
      "type": "function"
    },
    {
      "inputs": [],
      "name": "fetchMyNFTs",
      "outputs": [
        {
          "components": [
            {
              "internalType": "uint256",
              "name": "itemId",
              "type": "uint256"
            },
            {
              "internalType": "address",
              "name": "nftContract",
              "type": "address"
            },
            {
              "internalType": "uint256",
              "name": "tokenId",
              "type": "uint256"
            },
            {
              "internalType": "address payable",
              "name": "seller",
              "type": "address"
            },
            {
              "internalType": "address payable",
              "name": "owner",
              "type": "address"
            },
            {
              "internalType": "uint256",
              "name": "price",
              "type": "uint256"
            },
            {
              "internalType": "bool",
              "name": "sold",
              "type": "bool"
            }
          ],
          "internalType": "struct NFTMarket.MarketItem[]",
          "name": "",
          "type": "tuple[]"
        }
      ],
      "stateMutability": "view",
      "type": "function"
    },
    {
      "inputs": [],
      "name": "getListingPrice",
      "outputs": [
        {
          "internalType": "uint256",
          "name": "",
          "type": "uint256"
        }
      ],
      "stateMutability": "view",
      "type": "function"
    }
  ],
  "bytecode": "0x60806040526658d15e1762800060045534801561001b57600080fd5b50600160008190555033600360006101000a81548173ffffffffffffffffffffffffffffffffffffffff021916908373ffffffffffffffffffffffffffffffffffffffff160217905550611911806100746000396000f3fe6080604052600436106100555760003560e01c80630f08efe01461005a57806312e8558514610085578063202e3740146100b05780634f136a6c146100db578063541a2b9c146100f757806358eb2df514610122575b600080fd5b34801561006657600080fd5b5061006f61013e565b60405161007c91906113bb565b60405180910390f35b34801561009157600080fd5b5061009a61048b565b6040516100a791906113ec565b60405180910390f35b3480156100bc57600080fd5b506100c5610495565b6040516100d291906113bb565b60405180910390f35b6100f560048036038101906100f09190611464565b6107f7565b005b34801561010357600080fd5b5061010c610a6a565b60405161011991906113bb565b60405180910390f35b61013c600480360381019061013791906114a4565b610dcc565b005b6060600061014c60016110ea565b036101ad57600067ffffffffffffffff81111561016c5761016b6114f7565b5b6040519080825280602002602001820160405280156101a557816020015b610192611167565b81526020019060019003908161018a5790505b509050610488565b60006101b960016110ea565b905060006101c760026110ea565b6101d160016110ea565b6101db9190611555565b90506000808267ffffffffffffffff8111156101fa576101f96114f7565b5b60405190808252806020026020018201604052801561023357816020015b610220611167565b8152602001906001900390816102185790505b50905060005b8481101561047f57600073ffffffffffffffffffffffffffffffffffffffff166005600060018461026a9190611589565b815260200190815260200160002060040160009054906101000a900473ffffffffffffffffffffffffffffffffffffffff1673ffffffffffffffffffffffffffffffffffffffff160361046c576000600560006001846102ca9190611589565b81526020019081526020016000206000015490506000600560008381526020019081526020016000209050806040518060e0016040529081600082015481526020016001820160009054906101000a900473ffffffffffffffffffffffffffffffffffffffff1673ffffffffffffffffffffffffffffffffffffffff1673ffffffffffffffffffffffffffffffffffffffff168152602001600282015481526020016003820160009054906101000a900473ffffffffffffffffffffffffffffffffffffffff1673ffffffffffffffffffffffffffffffffffffffff1673ffffffffffffffffffffffffffffffffffffffff1681526020016004820160009054906101000a900473ffffffffffffffffffffffffffffffffffffffff1673ffffffffffffffffffffffffffffffffffffffff1673ffffffffffffffffffffffffffffffffffffffff168152602001600582015481526020016006820160009054906101000a900460ff16151515158152505084868151811061044f5761044e6115bd565b5b60200260200101819052506001856104679190611589565b945050505b8080610477906115ec565b915050610239565b50809450505050505b90565b6000600454905090565b606060006104a360016110ea565b905060008060005b8381101561054b573373ffffffffffffffffffffffffffffffffffffffff16600560006001846104db9190611589565b815260200190815260200160002060040160009054906101000a900473ffffffffffffffffffffffffffffffffffffffff1673ffffffffffffffffffffffffffffffffffffffff1603610538576001836105359190611589565b92505b8080610543906115ec565b9150506104ab565b5060008267ffffffffffffffff811115610568576105676114f7565b5b6040519080825280602002602001820160405280156105a157816020015b61058e611167565b8152602001906001900390816105865790505b50905060005b848110156107ec573373ffffffffffffffffffffffffffffffffffffffff16600560006001846105d79190611589565b815260200190815260200160002060040160009054906101000a900473ffffffffffffffffffffffffffffffffffffffff1673ffffffffffffffffffffffffffffffffffffffff16036107d9576000600560006001846106379190611589565b81526020019081526020016000206000015490506000600560008381526020019081526020016000209050806040518060e0016040529081600082015481526020016001820160009054906101000a900473ffffffffffffffffffffffffffffffffffffffff1673ffffffffffffffffffffffffffffffffffffffff1673ffffffffffffffffffffffffffffffffffffffff168152602001600282015481526020016003820160009054906101000a900473ffffffffffffffffffffffffffffffffffffffff1673ffffffffffffffffffffffffffffffffffffffff1673ffffffffffffffffffffffffffffffffffffffff1681526020016004820160009054906101000a900473ffffffffffffffffffffffffffffffffffffffff1673ffffffffffffffffffffffffffffffffffffffff1673ffffffffffffffffffffffffffffffffffffffff168152602001600582015481526020016006820160009054906101000a900460ff1615151515815250508486815181106107bc576107bb6115bd565b5b60200260200101819052506001856107d49190611589565b945050505b80806107e4906115ec565b9150506105a7565b508094505050505090565b6107ff6110f8565b600060056000838152602001908152602001600020600501549050600060056000848152602001908152602001600020600201549050813414610877576040517f08c379a000000000000000000000000000000000000000000000000000000000815260040161086e906116b7565b60405180910390fd5b6005600084815260200190815260200160002060030160009054906101000a900473ffffffffffffffffffffffffffffffffffffffff1673ffffffffffffffffffffffffffffffffffffffff166108fc349081150290604051600060405180830381858888f193505050501580156108f3573d6000803e3d6000fd5b508373ffffffffffffffffffffffffffffffffffffffff166323b872dd3033846040518463ffffffff1660e01b8152600401610931939291906116e6565b600060405180830381600087803b15801561094b57600080fd5b505af115801561095f573d6000803e3d6000fd5b50505050336005600085815260200190815260200160002060040160006101000a81548173ffffffffffffffffffffffffffffffffffffffff021916908373ffffffffffffffffffffffffffffffffffffffff16021790555060016005600085815260200190815260200160002060060160006101000a81548160ff0219169083151502179055506109f16002611147565b600360009054906101000a900473ffffffffffffffffffffffffffffffffffffffff1673ffffffffffffffffffffffffffffffffffffffff166108fc6004549081150290604051600060405180830381858888f19350505050158015610a5b573d6000803e3d6000fd5b505050610a6661115d565b5050565b60606000610a7860016110ea565b905060008060005b83811015610b20573373ffffffffffffffffffffffffffffffffffffffff1660056000600184610ab09190611589565b815260200190815260200160002060030160009054906101000a900473ffffffffffffffffffffffffffffffffffffffff1673ffffffffffffffffffffffffffffffffffffffff1603610b0d57600183610b0a9190611589565b92505b8080610b18906115ec565b915050610a80565b5060008267ffffffffffffffff811115610b3d57610b3c6114f7565b5b604051908082528060200260200182016040528015610b7657816020015b610b63611167565b815260200190600190039081610b5b5790505b50905060005b84811015610dc1573373ffffffffffffffffffffffffffffffffffffffff1660056000600184610bac9190611589565b815260200190815260200160002060030160009054906101000a900473ffffffffffffffffffffffffffffffffffffffff1673ffffffffffffffffffffffffffffffffffffffff1603610dae57600060056000600184610c0c9190611589565b81526020019081526020016000206000015490506000600560008381526020019081526020016000209050806040518060e0016040529081600082015481526020016001820160009054906101000a900473ffffffffffffffffffffffffffffffffffffffff1673ffffffffffffffffffffffffffffffffffffffff1673ffffffffffffffffffffffffffffffffffffffff168152602001600282015481526020016003820160009054906101000a900473ffffffffffffffffffffffffffffffffffffffff1673ffffffffffffffffffffffffffffffffffffffff1673ffffffffffffffffffffffffffffffffffffffff1681526020016004820160009054906101000a900473ffffffffffffffffffffffffffffffffffffffff1673ffffffffffffffffffffffffffffffffffffffff1673ffffffffffffffffffffffffffffffffffffffff168152602001600582015481526020016006820160009054906101000a900460ff161515151581525050848681518110610d9157610d906115bd565b5b6020026020010181905250600185610da99190611589565b945050505b8080610db9906115ec565b915050610b7c565b508094505050505090565b610dd46110f8565b60008111610e17576040517f08c379a0000000000000000000000000000000000000000000000000000000008152600401610e0e90611769565b60405180910390fd5b6004543414610e5b576040517f08c379a0000000000000000000000000000000000000000000000000000000008152600401610e52906117fb565b60405180910390fd5b610e656001611147565b6000610e7160016110ea565b90506040518060e001604052808281526020018573ffffffffffffffffffffffffffffffffffffffff1681526020018481526020013373ffffffffffffffffffffffffffffffffffffffff168152602001600073ffffffffffffffffffffffffffffffffffffffff16815260200183815260200160001515815250600560008381526020019081526020016000206000820151816000015560208201518160010160006101000a81548173ffffffffffffffffffffffffffffffffffffffff021916908373ffffffffffffffffffffffffffffffffffffffff1602179055506040820151816002015560608201518160030160006101000a81548173ffffffffffffffffffffffffffffffffffffffff021916908373ffffffffffffffffffffffffffffffffffffffff16021790555060808201518160040160006101000a81548173ffffffffffffffffffffffffffffffffffffffff021916908373ffffffffffffffffffffffffffffffffffffffff16021790555060a0820151816005015560c08201518160060160006101000a81548160ff0219169083151502179055509050508373ffffffffffffffffffffffffffffffffffffffff166323b872dd3330866040518463ffffffff1660e01b8152600401611052939291906116e6565b600060405180830381600087803b15801561106c57600080fd5b505af1158015611080573d6000803e3d6000fd5b50505050828473ffffffffffffffffffffffffffffffffffffffff16827f045dfa01dcba2b36aba1d3dc4a874f4b0c5d2fbeb8d2c4b34a7d88c8d8f929d13360008760006040516110d4949392919061182a565b60405180910390a4506110e561115d565b505050565b600081600001549050919050565b60026000540361113d576040517f08c379a0000000000000000000000000000000000000000000000000000000008152600401611134906118bb565b60405180910390fd5b6002600081905550565b6001816000016000828254019250508190555050565b6001600081905550565b6040518060e0016040528060008152602001600073ffffffffffffffffffffffffffffffffffffffff16815260200160008152602001600073ffffffffffffffffffffffffffffffffffffffff168152602001600073ffffffffffffffffffffffffffffffffffffffff168152602001600081526020016000151581525090565b600081519050919050565b600082825260208201905092915050565b6000819050602082019050919050565b6000819050919050565b61122781611214565b82525050565b600073ffffffffffffffffffffffffffffffffffffffff82169050919050565b60006112588261122d565b9050919050565b6112688161124d565b82525050565b60006112798261122d565b9050919050565b6112898161126e565b82525050565b60008115159050919050565b6112a48161128f565b82525050565b60e0820160008201516112c0600085018261121e565b5060208201516112d3602085018261125f565b5060408201516112e6604085018261121e565b5060608201516112f96060850182611280565b50608082015161130c6080850182611280565b5060a082015161131f60a085018261121e565b5060c082015161133260c085018261129b565b50505050565b600061134483836112aa565b60e08301905092915050565b6000602082019050919050565b6000611368826111e8565b61137281856111f3565b935061137d83611204565b8060005b838110156113ae5781516113958882611338565b97506113a083611350565b925050600181019050611381565b5085935050505092915050565b600060208201905081810360008301526113d5818461135d565b905092915050565b6113e681611214565b82525050565b600060208201905061140160008301846113dd565b92915050565b600080fd5b6114158161124d565b811461142057600080fd5b50565b6000813590506114328161140c565b92915050565b61144181611214565b811461144c57600080fd5b50565b60008135905061145e81611438565b92915050565b6000806040838503121561147b5761147a611407565b5b600061148985828601611423565b925050602061149a8582860161144f565b9150509250929050565b6000806000606084860312156114bd576114bc611407565b5b60006114cb86828701611423565b93505060206114dc8682870161144f565b92505060406114ed8682870161144f565b9150509250925092565b7f4e487b7100000000000000000000000000000000000000000000000000000000600052604160045260246000fd5b7f4e487b7100000000000000000000000000000000000000000000000000000000600052601160045260246000fd5b600061156082611214565b915061156b83611214565b925082820390508181111561158357611582611526565b5b92915050565b600061159482611214565b915061159f83611214565b92508282019050808211156115b7576115b6611526565b5b92915050565b7f4e487b7100000000000000000000000000000000000000000000000000000000600052603260045260246000fd5b60006115f782611214565b91507fffffffffffffffffffffffffffffffffffffffffffffffffffffffffffffffff820361162957611628611526565b5b600182019050919050565b600082825260208201905092915050565b7f506c65617365207375626d6974207468652061736b696e67207072696365206960008201527f6e206f7264657220746f20636f6d706c65746520746865207075726368617365602082015250565b60006116a1604083611634565b91506116ac82611645565b604082019050919050565b600060208201905081810360008301526116d081611694565b9050919050565b6116e08161124d565b82525050565b60006060820190506116fb60008301866116d7565b61170860208301856116d7565b61171560408301846113dd565b949350505050565b7f5072696365206d757374206265206174206c6561737420312077656900000000600082015250565b6000611753601c83611634565b915061175e8261171d565b602082019050919050565b6000602082019050818103600083015261178281611746565b9050919050565b7f5072696365206d75737420626520657175616c20746f206c697374696e67207060008201527f7269636500000000000000000000000000000000000000000000000000000000602082015250565b60006117e5602483611634565b91506117f082611789565b604082019050919050565b60006020820190508181036000830152611814816117d8565b9050919050565b6118248161128f565b82525050565b600060808201905061183f60008301876116d7565b61184c60208301866116d7565b61185960408301856113dd565b611866606083018461181b565b95945050505050565b7f5265656e7472616e637947756172643a207265656e7472616e742063616c6c00600082015250565b60006118a5601f83611634565b91506118b08261186f565b602082019050919050565b600060208201905081810360008301526118d481611898565b905091905056fea264697066735822122064b21a52b0a2a9045ef4ac22ef28a22e18931e69e1b892ff8ac0206d7927e34264736f6c63430008130033",
  "linkReferences": {},
  "deployedLinkReferences": {}
}